:200000000C9445060C948C060C948C060C948C060C948C060C948C060C948C060C948C0697
:200020000C948C060C948C060C9489290C945D2A0C94901B0C948C060C948C060C948C0602
:200040000C948C060C948C060C948C060C948C060C948C060C94E71B0C948C060C948C06A0
:200060000C948C060C948C060C948C060C948C060C948C060C948C060C948C060C948C06F0
:200080000C948C060C948C060C948C060C948C060C948C060C948C060C948C060C948C06D0
:2000A0000C948C060C948C060C948C06666C61677B643474615F337866316C5F723376336E
:2000C0007273335F336E67316E333372316E677D00424547494E4E494E47204441544120BC
:2000E000455846494C000151540055004C00240025002600560021002200230057001E00A1
:200100001F00200058002700360063002A000100085D55004C00240025002600560004008E
:20012000520005005700500051004F0058002700360063002A0044454255473A20646973DE
:2001400061626C65642E0A0044454255473A20656E61626C65642E0A0000000000000000AB
:20016000002A2B280000000000000000000000000000000029000000002C1E3420212224D4
:20018000342627252E362D3738271E1F202122232425263333362E37381F040506070809E1
:2001A0000A0B0C0D0E0F101112131415161718191A1B1C1D2F3130232D350405060708097D
:2001C0000A0B0C0D0E0F101112131415161718191A1B1C1D2F3130354C0000000000000088
:2001E000000000000000000000000000007E0F00D4FFFFFFC7000000780A00253038620069
:200200003A200025303258000A722F632030313233343536370A000A002530325820006B5D
:200220006579626F6172645F7265706F72743A20000A0025303258006B6579626F61726449
:200240005F7365745F6C65643A2000290A002575002F002575005D280025640020002564B8
:2002600000200025640020002564007C0025303258006D6F7573656B6579205B62746E7C24
:20028000782079207620685D287265702F61636C293A205B006D6B5F776865656C5F74699E
:2002A0006D655F746F5F6D6178203D2025640A006D6B5F776865656C5F6D61785F737065DD
:2002C0006564203D2025640A006D6B5F74696D655F746F5F6D6178203D2025640A006D6B90
:2002E0005F6D61785F7370656564203D2025640A006D6B5F696E74657276616C203D20259B
:20030000640A006D6B5F64656C6179203D2025640A006D6B5F776865656C5F74696D655F60
:20032000746F5F6D6178203D2025640A006D6B5F776865656C5F6D61785F737065656420A4
:200340003D2025640A006D6B5F74696D655F746F5F6D6178203D2025640A006D6B5F6D61CB
:20036000785F7370656564203D2025640A006D6B5F696E74657276616C203D2025640A00D9
:200380006D6B5F64656C6179203D2025640A000A00257500363A20776865656C5F74696D15
:2003A000655F746F5F6D61783A20000A00257500353A20776865656C5F6D61785F73706503
:2003C00065643A20000A00257500343A2074696D655F746F5F6D61783A20000A0025750034
:2003E000333A206D61785F73706565643A20000A00257500323A20696E74657276616C28A3
:200400006D73293A20000A00257500313A2064656C6179282A31306D73293A20000A092DE5
:200420002056616C756573202D0A004D3E004D25643E20003F007365742064656661756CFA
:20044000740A00433E200077686572652064656C74613A20637572736F723D25642C2077B7
:200460006865656C3D25640A53656520687474703A2F2F656E2E77696B6970656469612E93
:200480006F72672F77696B692F4D6F7573655F6B6579730A000A092D204D6F7573656B659B
:2004A00079202D0A4553432F713A09717569740A313A0964656C6179282A31306D73290A98
:2004C000323A09696E74657276616C286D73290A333A096D61785F73706565640A343A095A
:2004E00074696D655F746F5F6D61780A353A09776865656C5F6D61785F73706565640A367A
:200500003A09776865656C5F74696D655F746F5F6D61780A0A703A097072696E74207661A3
:200520006C7565730A643A097365742064656661756C74730A75703A092B310A646F776E3D
:200540003A092D310A706775703A092B31300A7067646F776E3A092D31300A0A737065653A
:2005600064203D2064656C7461202A206D61785F7370656564202A2028726570656174203D
:200580002F2074696D655F746F5F6D6178290A003F004D3E2000433E20004C25640A007465
:2005A000696D65725F72656164333228293A202530346C580A006B6579626F6172645F6913
:2005C000646C653A2025580A006B6579626F6172645F70726F746F636F6C3A2025580A0002
:2005E000686F73745F6B6579626F6172645F6C65647328293A2025580A000A092D2053742D
:2006000061747573202D0A004743433A20382E342E30204156522D4C4942433A20322E306D
:200620002E30204156525F415243483A20617672350A004F5054494F4E533A204C55464146
:20064000204D4F5553454B45592045585452414B455920434F4E534F4C4520434F4D4D41BB
:200660004E4420343039360A004255494C443A2022302E392E31302D34312D6766343230B7
:20068000373422202831373A30373A3230205365702020322032303230290A005649443AF2
:2006A00020307846454544284B65794869766529205049443A20307836303630286D61791E
:2006C00070616429205645523A203078303030310A00444553433A204275646765742D667B
:2006E0007269656E646C79206E756D7061640A000A092D2056657273696F6E202D0A000AAD
:20070000092D20436F6E736F6C65202D0A4553432F713A09717569740A6D3A096D6F75735A
:20072000656B65790A000A092D204D61676963202D0A443A094465627567204D65737361E2
:20074000676520546F67676C650A583A094D6174726978204465627567204D6F6465205411
:200760006F67676C65202D2053686F77206B65797072657373657320696E206D61747269BB
:200780007820677269640A4B3A094B6579626F61726420446562756720546F67676C6520A9
:2007A0002D2053686F77206B65797072657373207265706F72740A4D3A0944656275672058
:2007C0004D6F75736520546F67676C650A563A0956657273696F6E0A533A09537461747554
:2007E000730A433A09416374697661746520436F6E736F6C65204D6F64650A46312D463108
:20080000303A0953776974636820746F204C6179657220302D392028463130203D204C3035
:20082000290A302D393A0953776974636820746F204C6179657220302D390A4752415645E5
:200840003A0953776974636820746F204C6179657220302028616C7465726E617465290A38
:20086000423A094A756D7020746F20426F6F746C6F616465720A4553433A094A756D702045
:20088000746F20426F6F746C6F616465722028616C7465726E617465290A453A095072695C
:2008A0006E7420454550524F4D2053657474696E67730A4253504143453A09436C6561721B
:2008C00020454550524F4D0A000A002575002E6E6B726F3A20000A002575002E73776170B3
:2008E0005F6261636B736C6173685F6261636B73706163653A20000A002575002E7377617A
:20090000705F67726176655F6573633A20000A002575002E6E6F5F6775693A20000A002523
:2009200075002E737761705F72616C745F726775693A20000A002575002E737761705F6C7F
:20094000616C745F6C6775693A20000A002575002E737761705F7263746C5F726775693AFB
:2009600020000A002575002E737761705F6C63746C5F6C6775693A20000A002575002E631D
:200980006170736C6F636B5F746F5F636F6E74726F6C3A20000A002575002E737761705F82
:2009A000636F6E74726F6C5F636170736C6F636B3A20000A0025303258006B65796D6170BD
:2009C0005F636F6E6669672E7261773A20000A002575002E6D6F7573653A20000A00257577
:2009E000002E6B6579626F6172643A20000A002575002E6D61747269783A20000A002575B9
:200A0000002E656E61626C653A20000A00253032580064656275675F636F6E6669672E7282
:200A200061773A20000A0025750064656661756C745F6C617965723A20003F000A6D6F758B
:200A400073653A206F66660A000A6D6F7573653A206F6E0A000A6B6579626F6172643A20F6
:200A60006F66660A000A6B6579626F6172643A206F6E0A000A6D61747269783A206F666661
:200A80000A000A6D61747269783A206F6E0A000A64656275673A206F66660A000A64656287
:200AA00075673A206F6E0A000A0A4A756D70696E6720746F20626F6F746C6F616465722EAF
:200AC0002E2E2000433E2000436C656172696E6720454550524F4D0A006565636F6E666909
:200AE000673A0A005B735D004B6579626F6172642073746172742E0A005B575D005B535D4F
:200B0000005B525D005B445D005B435D000403300000000E036D0061007900700061006410
:200B200000000010034B0065007900480069007600650000000403090409025B000301006F
:200B4000A0FA0904000001030101000921110100012240000705810308000A090401000198
:200B6000030000000921110100012281000705820320000A09040200020300000009211188
:200B800001000122220007058303200001070503032000011201100100000008EDFE606052
:200BA0000100010203010631FF0974A1010975150026FF009520750881020976150026FFB2
:200BC00000952075089102C005010902A10185020901A10005091901290515002501950580
:200BE000750181029501750381010501093009311581257F95027508810609381581257FA3
:200C0000950175088106050C0A38021581257F950175088106C0C005010980A101850319BF
:200C2000012AB700150126B700950175108100C0050C0901A101850419012AA0021501261B
:200C4000A002950175108100C005010906A101050719E029E7150025019508750181029564
:200C600001750881010507190029FF150026FF0095067508810005081901290595057501EF
:200C80009102950175039101C00011241FBECFEFDAE0DEBFCDBF04B603FE27C08091730286
:200CA00090917402A0917502B09176028730904BA740B04BD1F41092730210927402109232
:200CC00075021092760214BE84B7877F84BF0FB6F894A89580916000886180936000109230
:200CE00060000FBEE0E0F8E3099511E0A0E0B1E0ECE8F9E502C005900D92A23CB107D9F77E
:200D000022E0A2ECB1E001C01D92A337B207E1F70E94AF260C949C2C0C940000FF93EF9344
:200D2000E091C201F091C301309709F00995EF91FF910895FC018591803011F0EFDFFBCFD3
:200D40000895FF27E0E230E247FF0CC0419597FF09C0EDE26095709580959095611D711DA6
:200D6000811D911D27FF02C0219530E350E2AA27660F771F881F991FAA1FA41710F0A41BC6
:200D800063955A95A9F7AA3008F0A95FA05DAF93F395611571058105910541F7ED3211F4C7
:200DA000EF93F395F21718F43F93F395FBCF8F91B5DFFA95E1F70895E991F991859180306E
:200DC00021F0853219F0AADFF9CF089520E0E89455915532C1F3503311F4689455915A33C0
:200DE00048F4505390F3220F022E220F220F200D250FF4CF0EF4219589919991533619F319
:200E0000533729F1533559F1BC0188279927E8945C3621F48991999168945591543639F430
:200E200046EF7EF077FF0DC08FEF9FEF0AC055374AE039F0583540E121F0523642E009F0B5
:200E40000895FF93EF937DDFEF91FF91B7CFFF93EF93FC0181918030B9F360DFFBCFFF93D5
:200E6000EF9368DFF1CFDF93CF93CDB7DEB72596A3DFCF91DF910895CF93DF93CDB7DEB765
:200E8000C155D1090FB6F894DEBF0FBECDBF88302DE5920771F089309D45A1F081E0CF5AA1
:200EA000DF4F0FB6F894DEBF0FBECDBFDF91CF910895FB018281882389F381ED90E00E94AA
:200EC000C208ECCF86E0E5E1F1E0DE01A45BBF4F01900D928A95E1F786E0EBE1F1E0DE019B
:200EE000AA5BBF4F01900D928A95E1F787E0E1E2F1E0DE01DF9601900D928A95E1F789E0D9
:200F0000E8E2F1E0DE01D69601900D928A95E1F78DE0E1E3F1E0DE01999601900D928A9565
:200F2000E1F7FB018281882309F4B8CFBE01645B7F4FCE0101960E94532CBE016A5B7F4F86
:200F4000CE0101960E94482CBE01615C7F4FCE0101960E94482CBE016A5C7F4FCE01019696
:200F60000E94482CBE01675D7F4FCE0101960E94482C8CEA90E0A3CF81E008950C943C0755
:200F800008950C94C0071F93CF93DF9300D000D00F92CDB7DEB749835A836B833091D7013D
:200FA00089819A8131111DC06623B9F02223A9F00E94DE18182F682F89819A810E948B18FD
:200FC00069817A81812F0F900F900F900F900F90DF91CF911F910C9446090E94B718182F3A
:200FE000EFCF0E94DE1869817A81EDCFFC01262F408151816281738184810C94C307CF936D
:20100000DF93EC0160E00E94F607BE01DF91CF910C94C107FF920F931F93CF93DF93E82FCB
:20102000F0E0E75AFE4FF490C82FC695C695C695D0E0FE01E751FE4F0491877010E0082EE0
:2010400002C0159507950A94E2F701701127C752DE4FFE01C491D0E002C0D595C7958A9577
:20106000E2F7C170DD270115110519F081EE0E945210209719F086EE0E9452108F2D0E9424
:201080003F11CD2B19F086EE0E94E910012B41F081EEDF91CF911F910F91FF900C94E910DC
:2010A000DF91CF911F910F91FF900895EF92FF920F931F93CF93DF938C01F62E8AE0E82E79
:2010C000F8018491882309F456C0813009F04FC0E8012196FE018491813051F42196FE012B
:2010E0001491812F0E945210812F0E94E91008C0823099F4E8012296FE0184910E9452108C
:201100008E010F5F1F4F8F2D8150D0F2EFE9FFE03197F1F700C00000F7CF833029F4E8016F
:201120002296FE018491E1CF843051F7E8012296FE01249190E080E0FE0131962053330B9B
:201140002A30310548F00197D8F2EFE9FFE03197F1F700C00000F7CFE89EA001E99E500D6D
:201160001124C901840F951F2491EF01E5CF0E940A08E801C5CFDF91CF911F910F91FF90F0
:20118000EF90089560E00C9456080E941E1C0E94451A811102C00E94E21A0C94520B0C9489
:2011A000550B08950C94D10881E008950C94D408CF93C82F0E94D2088C2FCF910C94D608D1
:2011C00008950E94F5130E94E0082FEF84E39CE0215080409040E1F700C000000C940B1CDD
:2011E0000F931F93CF93DF93EC0161E00E94F6078C01BE010E94BE07882311F1BE01C80112
:201200000E941F0D8823E1F0BE01C8010E94600D8823B1F0BE01C8010E94830E882381F0CA
:201220008A81882341F101308CE5180779F00E3D8CE51807E9F001151C45E9F40E94E10809
:2012400080E0DF91CF911F910F91089590913402892F8E7F90FF81608093340280FF05C058
:2012600088E491E00E949A06EBCF86E391E0FACF0E94E21AE5CFCE01DF91CF911F910F91B1
:201280000C94BC0790E080E008950895E72FF0E095E0899FE00DF11D1124EE0FFF1FEE0F16
:2012A000FF1FE60FF11DEE0FFF1FEA51FF4F859194910895FC01EE0FFF1FE750FE4F8591DF
:2012C00094910895CF93DF930E9446090E94770AEC01811520E5920708F042C0811530E49F
:2012E000930708F0BDC0883E910528F5803E910508F09DC0883A910588F4853A910508F09C
:201300008FC08130910509F492C0009709F48FC0049708F08CC0D0E0C0E089C08F3B91052D
:2013200008F489C0805C9109C03CD105A0F30E945A09EC017CC08115904250F4C11581E07C
:20134000D80708F074C0C03FD10528F3D0656FC0C11590E3D90708F079C0CE019F70E7CF40
:20136000811525E5920758F5811534E5930708F0A6C0811542E5940750F4C11581E5D80789
:2013800008F471C0DC2FCC27C16FD06A50C0982F969596959E0123703327C115D34508F019
:2013A0007FC0C1E0D0E002C0CC0FDD1F2A95E2F720E2929FC0011124C82BD92B6FC0C11547
:2013C00089E5D807A8F4C11598E5D90708F07CC0C11526E5D20708F09ECF8C2F0E940E0B28
:2013E000C82FD0E0DC2FCC27CC27DF71D0621FC0C1153AE5D30708F46CC0CE0190568115B2
:20140000904208F088CF8D2F8F710E940E0B90E0982F882788279F719C012C2BE901E6CFFC
:20142000C55AD0E0C459DE4FC881D0E0D064CE01DF91CF910895C85AD0E0CC0FDD1FC25C63
:20144000DE4F0990D881C02DD464F1CFCE019927D3FF03C0EC01D86CEACFEC01D06CE7CF9B
:20146000DF70D06AE4CFCE01E4E096958795EA95E1F783702C2F26952695237090E2299F6E
:2014800090011124382B8C2F8370C1E0D0E002C0CC0FDD1F8A95E2F7C22BD32BDC68C7CFCE
:2014A000C1E0D0E002C0CC0FDD1F2A95E2F730E2939FC0011124C82BD92BDA68B8CFD82FA9
:2014C000CC27C46FD06AB3CFDC2FCC27C06FD06AAECF8C2F8F700E940E0B34E0D695C795F6
:2014E0003A95E1F7CF709C2FEC01D069A0CF82389105B1F1B0F48133910509F475C048F458
:201500008932910509F469C08A32910509F473C008958533910509F459C08933910501F18D
:201520000895833E9105A9F138F4803E9105F9F0823E910549F10895863E9105A9F1873ECE
:201540009105C9F1843E910519F52091650221FF1FC08091640284FD14C087EE90E0089570
:20156000209164022370A1F080EE90E008952091640220FD47C03091650230FF09C024FF37
:2015800044C090E080E004C02091640222FDF7CF08952091640222FD3BC03091650230FD94
:2015A000E3CF24FFF5CFEDCF2091640223FFF0CF24FDE7CFD2CF2091640223FD2CC0309182
:2015C000650231FFEECF84EE90E008952091640225FFDECF89E290E008952091640225FF9D
:2015E000D7CF85E390E008952091640226FFD0CF8AE290E008952091640226FFC9CF81E344
:2016000090E0089589E390E0089583EE90E0089582EE90E0089586EE90E008959091640241
:2016200092FF06C0282F28712830F9F4877F846093FF06C0282F28712831F1F4877E8461C4
:201640002091650220FF06C0382F38713830D9F4877F816021FF06C0282F28712831D1F46D
:20166000877E816194FD877E0895282F24712430F9F68B7F8860DCCF282F2471243101F74B
:201680008B7E8861DDCF382F3171313019F78E7F8860E0CF282F2171213121F78E7E886146
:2016A000E1CF08950C94510B08950C94540BE82FF0E0E75AFD4F80810895CF92DF92EF92E0
:2016C000FF920F931F93CF93DF9388E092E00E949A0689E5E82E82E0F82ED0E0C0E093E066
:2016E000C92E92E0D92E0BEF11E0DF93CF93DF92CF920E94330780E092E00E949A06F70101
:2017000081917F010E94271A1F928F931F930F930E94330789EF91E00E949A0621968DB72B
:201720009EB708960FB6F8949EBF0FBE8DBFC530D105D9F6DF91CF911F910F91FF90EF9027
:20174000DF90CF90089580EA8A95F1F70895CF93DF93A3E7B1E048E751E0C1E0D0E08D9152
:20176000E82FE295EF70F0E061A18F709E0101C0220F8A95EAF7922F9095962391A382A124
:20178000822B82A34A175B0751F7AFE6B1E061E070E08D91E82FE295EF70F0E041A18F70F9
:2017A0009B0101C0220F8A95EAF7922F9095942391A382A1822B82A381E0A337B80749F79B
:2017C00010925402109259021092550210925A021092560210925B021092570210925C0229
:2017E0001092580210925D0285E00E947B0CDF91CF910C94C5088F929F92AF92BF92CF92DC
:20180000DF92EF92FF920F931F93CF93DF9383E7A82E81E0B82E04E512E0912CCC24C394B7
:20182000D12CF50181915F01C82FC295CF70D0E099A18F70760101C0EE0C8A95EAF7892FE3
:201840008E2989A38AA18E2C809488218AA30E94A30BEFE6F1E050E040E020E03191A32FFC
:20186000A295AF70B0E090968C9190E03F7002C0959587953A95E2F780FD39C08C2D042E0F
:2018800001C0880F0A94EAF7282B4F5F5F4F4430510521F789A1882289A28AA1E82AEAA218
:2018A000F8018081281729F1208381E0982A0F5F1F4FF8E7AF16F1E0BF0609F0B2CF292D29
:2018C00045E069E572E084E592E00E947C0C0E94CF08892DDF91CF911F910F91FF90EF90E1
:2018E000DF90CF90BF90AF909F908F90089580E0CBCF80E0DBCF0895FF920F931F93CF93B9
:20190000DF93F82E092F162FD72FC42F222349F081E08093C6010E94C01B9093C501809387
:20192000C4018091C6018823A1F08091C4019091C5010E94D81B069760F0EF2DF02FA12F84
:20194000BD2FCE0FDF2FD11DEC17FD0741F41092C601DF91CF911F910F91FF9008958191BF
:201960008D93F2CF0F931F93CF93DF93C62FD42F022FFC0182818823C9F06093C9010E9472
:20198000C01B9093C8018093C70180E28C0F883008F050C0C77081E001C0880FCA95EAF7B8
:2019A000DF91CF911F910F910C9452111091C901161335C08091C7019091C8010E94D81B23
:2019C000883C910560F5C0E2CD0F1D17B9F080E2810F883040F4177081E001C0880F1A9530
:2019E000EAF70E945911C83048F481E09D2F977001C0880F9A95EAF70E945211802F0E94D4
:201A00003F11C830B8F4D77081E001C0880FDA95EAF7DF91CF911F910F910C94591180E2F6
:201A20008C0F883038F4C77081E001C0880FCA95EAF7EFCFDF91CF911F910F9108959C01DF
:201A4000CB01233F4CE5340731F190F4283DFCE53F07E9F0293D4CE5340769F1273D3C45D0
:201A600079F426E241EE61EE0E94B20C80E00895253FFCE53F07B9F090F0263F3C45B9F0D3
:201A8000FC0182818823D1F01092C901089527E245EE65EEE9CF26E241EE60EEE5CF27E248
:201AA00045EE64EEE1CF26E241EE62EEDDCF27E245EE66EED9CF28E241E0EBCF81E00895A3
:201AC000CF93DF93EC01FB018281882309F419C1C230FCE5DF07C0F1C6319CE5D90730F0E2
:201AE0009E012A5F3C452930310570F50E94581A9093650280936402C031ECE5DE0709F48E
:201B0000CFC008F05BC0C8308CE5D80709F4B6C088F5C430ECE5DE0709F4A8C0C0F4C23036
:201B20008CE5D80709F49CC0809164028260C330DC4509F498C080916402909165020E9499
:201B4000661A0E94F51380E0DF91CF910895809164028061C630ECE5DE0709F484C0809138
:201B600064028860C730DC4508F47DC080916402806279C0CC308CE5D80709F489C070F43E
:201B8000809164028C60CA30ECE5DE0709F46BC008F478C0809164028E7F65C0CE308CE5BE
:201BA000D80709F479C0809164028B7FCF30DC4508F459C0809164028F7E55C0CB3FECE5E6
:201BC000DE0709F457C030F5C3318CE5D80709F46FC078F4C131ECE5DE0709F465C0C2314E
:201BE000DC4509F0A8CF0E94F513809164028F773AC0C5318CE5D80709F462C008F476C09C
:201C0000809165028160CA3FDC4509F094CF8093650291CFCF3FFCE5DF0709F44DC088F4B0
:201C2000809165028D7FCD3F9CE5D90781F3809165028E7FCE3FDC4550F3809165028360EE
:201C4000E6CFC130FDE5DF0709F459C008F444C080E0C230DD4509F06ECF0E94E41A6BCF7C
:201C60008091640281608093640265CF809164028460F9CF809165028260C9CF80916402D3
:201C80008064F1CF0E94F513809164028068EBCF809164028D7FE7CF80916402877FE3CF75
:201CA000809164028F7DDFCF809164028F7BDBCF80916402837FD7CF809165028C7FA7CFB0
:201CC0008091640282FB992790F921E0922790FB82F990FB83F9C7CF80916502982F909506
:201CE00091708E7F892B90FB81F991CF0E94F51390916402892F97FB87F98058B4CF81E006
:201D0000ACCF81E021CFCF93DF93EB0186319C4511F50E9473199A81992399F08A7A91E096
:201D200009F490E09093CA01811109C089E20E944E190E94BF1980E0DF91CF91089585E3CA
:201D4000F6CF8091CA01811104C089E20E945519F0CF85E3FBCF81E0EFCF9093D0018093FA
:201D6000CF010895E091CF01F091D001309721F00190F081E02D099480E00895EF92FF92D0
:201D80000F931F93CF93DF938C01E091CF01F091D0013097C1F10280F381E02D09958091D0
:201DA000340282FF30C080FF04C08FE192E00E949A06D0E0C0E089E1E82E82E0F82E8091AC
:201DC000340280FF0EC0F801EC0FFD1F80811F928F93FF92EF920E9433070F900F900F90D1
:201DE0000F902196C830D10551F78091340280FF0AC087E192E0DF91CF911F910F91FF905E
:201E0000EF900C949A06DF91CF911F910F91FF90EF900895E091CF01F091D001309739F0B5
:201E200022E0DC012C930480F581E02D099408952091CD013091CE012817390771F09093B1
:201E4000CE018093CD01E091CF01F091D001309721F00680F781E02D099408952091CB01A5
:201E60003091CC012817390771F09093CC018093CB01E091CF01F091D001309721F0008436
:201E8000F185E02D0994089585B7806885BF85B7806885BF0895089508950C944B0F089547
:201EA0000C944F0F0E94440F0E944C0F0C944D0F81E008950C94580F0E94B71B0E94A70B69
:201EC0000E94321C0C94500FCF93C82F8091340282FF1EC080FF1CC088E392E00E949A069A
:201EE0008091340280FF14C01F92CF9383E392E09F938F930E943307809134020F900F90A8
:201F00000F900F9080FF04C081E392E00E949A068C2FCF910C94D808BF92CF92DF92EF92E9
:201F2000FF920F931F93CF93DF93CDB7DEB72A970FB6F894DEBF0FBECDBF0E94FB0B0E947D
:201F40005A0F882309F45EC082EDC82E81E0D82E10E000E0B02E802F0E94570BE82EF60118
:201F6000F1906F01F81609F447C08091340281FD0E945D0B9F2D9E2580E0FF24F394292F9E
:201F80002F21B1F18E83BF82EF2081E009F480E088870E94C01B8160782F9A8789874E811C
:201FA0005F8168858A850E942310F801EE52FE4F8081F826F0820E94411E0E94B20E9091D5
:201FC000D101891781F10E94B20E8093D1012A960FB6F894DEBF0FBECDBFDF91CF911F914F
:201FE0000F91FF90EF90DF90CF90BF900C94640F8F5FFF0C843019F60F5F1F4F0530110520
:2020000009F0A8CF8FEF89838A831B820E94C01B8160782F9D838C8349815A816B818D8149
:202020000E942310C8CF2A960FB6F894DEBF0FBECDBFDF91CF911F910F91FF90EF90DF9090
:20204000CF90BF900895CF93DF93CDB7DEB72B970FB6F894DEBF0FBECDBF4F83588769879E
:202060007A878B871E821D8285E0FE013796DE01119601900D928A95E1F749815A816B819F
:202080007C818D819E812B960FB6F894DEBF0FBECDBFDF91CF910C946B16FC01808191810D
:2020A0000C942019CF93C82F882309F490C08238C1F40E94B20E81FD8AC089E30E944E19E8
:2020C0000E94BF192FEF81EE94E0215080409040E1F700C0000089E30E945519CF910C9470
:2020E000BF198338A1F40E94B20E80FD70C083E50E944E190E94BF192FEF81EE94E021504C
:2021000080409040E1F700C0000083E5E5CF8438A1F40E94B20E82FD5AC087E40E944E19BB
:202120000E94BF192FEF81EE94E0215080409040E1F700C0000087E4CFCF8CEF8C0F813AB1
:20214000B8F48C2F0E943223811141C06C2F80910001909101010E94FB1A882329F08C2F88
:202160000E9455190E94BF198C2F0E944E19B6CF80E28C0F883048F4C77081E001C0880FAB
:20218000CA95EAF70E947619A9CFEBE5EC0FE33040F4F0E0EA55FE4F808190E0CF910C9477
:2021A000180FE8E5EC0FE73150F4F0E0EE0FFF1FE858FE4F80819181CF910C942E0FC03F0D
:2021C00030F08C2F0E94CD1CCF910C94B41DCF910895882309F452C0823871F40E94B20E90
:2021E00081FF4CC089E30E944E190E94BF1989E30E9455190C94BF19833859F40E94B20E06
:2022000080FF3CC083E50E944E190E94BF1983E5EFCF843859F40E94B20E82FF2FC087E4EC
:202220000E944E190E94BF1987E4E2CF9CEF980F913AF0F290E2980F983050F4877091E093
:2022400001C0990F8A95EAF7892F0E947C19D2CF9BE5980F933020F490E080E00C94180FF0
:2022600098E5980F973120F490E080E00C942E0F803F20F00E94351D0C94B41D0895CF937E
:20228000C82F0E945210C93349F42FEF87EE93E0215080409040E1F700C000008C2FCF9150
:2022A0000C94E910882321F00E9476190C94BF190895882321F00E947C190C94BF1908957B
:2022C000BF92CF92DF92EF92FF920F931F93CF93DF936C01D62FC72FFC01058102950F70A0
:2022E000128111110E9493190E946C19E82E882371F01123B1F080E28D0F883090F082E025
:202300000E940A1A0E946C1991E0E82EE926BC2EB2949FE0B922EB2DF0E0E256F34D0C94B0
:202320002E2CE12CF4CF0C2F0F70C07F11F00295007F1123A9F0002359F080E28D0F883074
:2023400010F0D11109C0802F0E9476190E94BF198D2F0E94521014C0802F0E948619F6CF2F
:202360008D2F0E94E910002359F080E28D0F883010F0D1112CC0802F0E947C190E94BF19B6
:202380002B2D2850330B2430310520F40E94B20E0E94D808EE2009F4D5C10E94681980FD6C
:2023A000D1C1F60112820E9462190E94EF17C6010E94C3130E946219DF91CF911F910F91BF
:2023C000FF90EF90DF90CF90BF900C941018802F0E948C19D3CFFC2FFF70FF2EC07FC0327A
:2023E00019F0F29480EFF822DD2369F0D13049F1112391F1002351F1F601858180FFA8CF23
:202400008F70858323C0112381F0011106C00E94A6198F290E945211B3CF0130C1F70E942A
:20242000A6198F290E94AC19ABCF011106C00E94B5198F2D0E945911A3CF013009F4A0CF25
:20244000F6CF112329F0063008F09ACF8F2DE2CF053008F095CFEDCF002359F3D93349F461
:20246000FFEF27EE33E0F15020403040E1F700C000008D2F0E94E91083CF8C2F8695869503
:20248000837069F0813009F07BCF8D2F9C2F9370111102C090E080E00E942E0F71CF8D2FE3
:2024A0009C2F9370111102C090E080E00E94180F67CF112309F1D53F99F0D63FB9F0D43FFF
:2024C00049F480915E0290915F02816090935F0280935E028D2F0E94CD1C0E94B41D50CF1B
:2024E00080915E0290915F028260F0CF80915E0290915F028460EACFD53F89F0D63FA9F07D
:20250000D43F49F480915E0290915F028E7F90935F0280935E028D2F0E94351DDECF809106
:202520005E0290915F028D7FF2CF80915E0290915F028B7FECCF8C2F837009F041C011116A
:202540001FCF4D2F429546954770440F440F0D2F0F7010E030E020E0042E04C0000F111F12
:20256000221F331F0A94D2F760E070E0CB01D4FF0FC06FE070E080E090E004C0660F771F25
:20258000881F991F4A95D2F76095709580959095C695C695C370602B712B822B932BC23093
:2025A00049F058F4C13019F00E94A117E9CE0E948F17E6CE0E94B317E3CE0E948D17E0CE7E
:2025C0008695112311F08C2F8170882309F4D8CE4D2F429546954770440F440F0D2F0F706B
:2025E00010E030E020E0042E04C0000F111F221F331F0A94D2F760E070E0CB01D4FF0FC0AE
:202600006FE070E080E090E004C0660F771F881F991F4A95D2F76095709580959095C695E6
:20262000C695C370602B712B822B932BC23049F058F4C13019F00E946618A2CE0E9454186B
:202640009FCE0E9478189CCE0E94C91799CECF70112329F08C2F0E94EF178D2FDBCE8D2F78
:202660000E9459118C2F0E9410188ACED23F89F160F4D03FC9F0D13F29F1112309F442C06D
:20268000011166CE8C2F8F7121C0D33F39F1D43FA1F7112369F1CF718C2F0E94EF1763E0FD
:2026A0008C2F0E94F5196CCE112341F0053008F067CE8C2F8F710E94331862CE063008F0A8
:2026C0005FCEF7CF8C2F8F71112369F20E94EF1757CE8C2F8F711123C9F3C5CF112329F064
:2026E0008C2F8F710E94DA174BCE0E94D51748CE81E00E940A1A023008F442CE82E00E9466
:202700000A1A3ECE002359F0D93309F0B2CE8FEF97EEE3E081509040E040E1F7A8CE8C2F08
:202720008F71A1CF4C2F4F706D2FC6010E9442090E94051725CE4C2F4F706D2FC6010E94AF
:2027400045091ECEDF91CF911F910F91FF90EF90DF90CF90BF9008950F931F93CF93DF932F
:20276000EC01688179818A810E942A198C010E948A180E948C17B801CE01DF91CF911F917B
:202780000F910C946011CF93DF93EC018B819C81892B29F08881998189238F3F19F4DF91B7
:2027A000CF910895CE010E94F0088823C1F3CE010E94AC13CE01DF91CF910C94FF070E943D
:2027C00093190E94A3190E94BF190E945B1F0E94B41D90E080E00E94180F90E080E00C94DD
:2027E0002E0F0E945C190C94DF130E9483190C94F113E92FE295EF70E250EE3070F4F0E09F
:20280000E255F34D0C942E2C803F19F020F4883E20F481E00895843FE1F380E00895883E39
:20282000C0F3813FD1F7F5CF93FB882780F908950E9420190C94F913CF93DF9300D000D04B
:202840000F92CDB7DEB70F900F900F900F900F90DF91CF910895CF93DF9300D000D000D0F2
:20286000CDB7DEB726960FB6F894DEBF0FBECDBFDF91CF9108951F93CF93DF93C091D8011F
:2028800016E08091D9018C1304C0DF91CF911F910895D0E01C9FF0011D9FF00D1124E65255
:2028A000FE4F4081518162817381848195810E942B142196C770E5CF40910A0250910B02F8
:2028C00060910C0270910D0280910E0290910F020C942B141F93CF93DF9380910F02807F10
:2028E000A9F480910C02882389F08091D801C091D90160910A0270910B02A0910D02B09157
:202900000E02D62FD72316E0C81304C0DF91CF911F91089590E0109711F0DF3F19F401961C
:202920008770F2CF189F9001199F300D1124F901E652FE4F41814713F2CF40814613EFCF39
:2029400042814111ECCF438154814A1B5B0B483C510528F780910F028F70806180930F0224
:20296000F901E152FE4F80818F70806180838AE092E00E94C313DF91CF911F910C943B1436
:20298000AF92BF92CF92DF92EF92FF920F931F93CF93DF93CDB7DEB761970FB6F894DEBF9A
:2029A0000FBECDBF8C0185E0F801DE011D9601900D928A95E1F7F80140815181E2808AE0C2
:2029C000C82E82E0D82E60910D0270910E026115710509F461C190910A0220910B02892FDA
:2029E00082238F3F09F458C1A380B480F0900C02F501E61BF70BFF2009F4FCC080910F0276
:202A0000382F307FE83CF10508F0B2C0311179C0FE2C251323C0941321C0E1101FC08F7005
:202A2000806180930F020E945C14C6010E94C31380910F02F80185838F2D61960FB6F89419
:202A4000DEBF0FBECDBFDF91CF911F910F91FF90EF90DF90CF90BF90AF900895AB2829F06D
:202A6000842F85238F3F09F033C180E0F82FF170DF2E80FF3CC08091D8012091D90136E045
:202A8000821315C04D875E878D859E850E942019292F22952F702230F0F0243018F59F70B3
:202AA000F1F0F8019581907FD1F4D12C1EC090E0389FF001399FF00D1124E652FE4F6181CE
:202AC000651306C06081641303C062816E110FC001968770D5CF9F7011F0882331F3805E7D
:202AE000883018F3C8010E94C313FD2CA5CFEE2009F4A2CF80910F02816080930F02F12C75
:202B00009BCF251306C0941304C0F801EE2009F48DC04D875E878D859E850E94181488232A
:202B200019F1EE2009F180910F02803270F020910A0230910B0238872F831986BB86AA8643
:202B40008C87CE0107960E94C31386E0F801AAE0B2E001900D928A95E1F70E946A140E941A
:202B60005C14FF24F39468CFC8010E94C313F9CF311113C07A2DB98AA88A6E2D89890E947B
:202B80001C148AE092E00E94C31386E0F60111928A95E9F70E945C14B2CF25130FC0941371
:202BA0000DC0E1100BC0F8018583C8010E94C31386E0F60111928A95E9F73ECF4D875E8785
:202BC0008D859E850E941814882371F2EE2061F280910F02803208F4B8CF20910A023091AE
:202BE0000B023A8329831B82BD82AC828E83CE010196A9CFE83CF10508F041C0FE2CEE201B
:202C000009F4B2CF25132AC0941328C080910F0280FD1BC0982F907FC1F0F8018583903FB4
:202C200031F0982F907F905F8F70892B8583C8010E94C31386E0F801AAE0B2E001900D9207
:202C40008A95E1F70E945C14F7CE86E0F801AAE0B2E001900D928A95E1F7EECE4D875E878F
:202C60008D859E850E94181481116FCF80910F02816080930F02C8010E94C313DDCE7A2DC7
:202C8000B98AA88A6E2D89890E941C1486E0F60111928A95E9F7D6CFEE2009F465CF4D8789
:202CA0005E878D859E850E941814F82E882309F45BCF86E0F801AAE0B2E001900D928A956A
:202CC000E1F78AE092E00E944D100E946A14BACF81E08E25CBCE1F93CF93DF93CDB7DEB74C
:202CE0002C970FB6F894DEBF0FBECDBF4F83588769877A878B879C87CE0107960E94C01411
:202D0000882369F08A859B85892B39F04F815885842F85238F3F09F071C016E05FC086E028
:202D2000FE013796DE01119601900D928A95E1F78A859B85892B89F38F81988589238F3F14
:202D400061F32091D90130E0C9010196877099274091D8014817190671F40E94F513109293
:202D6000D9011092D80186E0EAE0F2E0DF011D928A95E9F7D2CF96E0929FD001939FB00D66
:202D80001124A652BE4FFE01319601900D929A95E1F78093D9010E943B14BFCF819FC001AF
:202DA000112486529E4F0E94C0148823E9F0E091D8011E9FF0011124E652FE4F40815181DA
:202DC00062817381848195810E942B148091D80190E00196877099278093D8018091D801A2
:202DE0009091D9018913DACF2C960FB6F894DEBF0FBECDBFDF91CF911F91089569857A8580
:202E00008B859C850E942B1488CFEF92FF920F931F93CF93DF938C01892B81F0F12CEE242E
:202E2000E394E8012196F8018491843770F4843008F05FC08130B1F08230A1F1DF91CF911D
:202E40001F910F91FF90EF900895853709F44CC008F43DC09CE7980F903780F78F770E94A9
:202E6000E91049C00E5F1F4FFE01849190E2980F983060F48770FE2D01C0FF0F8A95EAF73B
:202E80008F2F0E9496190E94BF1902C00E9452108F2D815030F2EFE9FFE03197F1F700C00D
:202EA0000000F7CF0E5F1F4FFE01849190E2980F983050F48770FE2D01C0FF0F8A95EAF747
:202EC0008F2F0E949C19DFCF0E94E910E1CF0E5F1F4FFE01C491C150D8F28FE99FE001974B
:202EE000F1F700C00000F7CF0E5F1F4FFE01F490CFCF0E9452108E01CBCF08950C947D176A
:202F00000E947E17609323027093240280932502909326020C94DF1308950C9480170F93AC
:202F20001F9300912302109124022091250230912602602B712B822B932B1F910F910C941F
:202F400080170F931F930091230210912402209125023091260260237123822393231F9126
:202F60000F910C9480170F931F930091230210912402209125023091260260277127822720
:202F800093271F910F910C9480170C947D170C94C5170E94C71760931F0270932002809374
:202FA0002102909322020C94DF1360E070E0CB010C94C9170F931F9341E050E060E070E004
:202FC0008A019B0104C0000F111F221F331F8A95D2F7C901B8011F910F910C94C9170F9357
:202FE0001F9341E050E060E070E004C0440F551F661F771F8A95D2F780911F02909120023B
:20300000A0912102B09122028A019B01082B192B2A2B3B2BC901B8011F910F910C94C9174B
:203020000F931F9341E050E060E070E004C0440F551F661F771F8A95D2F7CB01BA01609551
:2030400070958095909500911F0210912002209121023091220260237123822393231F91E1
:203060000F910C94C9170F931F9341E050E060E070E004C0440F551F661F771F8A95D2F76D
:2030800080911F0290912002A0912102B09122028A019B01082719272A273B27C901B80136
:2030A0001F910F910C94C9170F931F9300911F02109120022091210230912202602B712B97
:2030C000822B932B1F910F910C94C9170F931F9300911F0210912002209121023091220233
:2030E00060237123822393231F910F910C94C9170F931F9300911F021091200220912102F1
:203100003091220260277127822793271F910F910C94C9170895990F990F890F982F977025
:2031200041E001C0440F9A95EAF786958695869595E0899FF0011124E05FFD4F30E020E09B
:2031400070E05191DF011197CB01022E02C0969587950A94E2F78170819585278423852733
:203160008C932F5F3F4F2530310559F70895990F990F890F982F977086958695869525E090
:20318000829FF0011124E05FFD4F50E040E080E0219130E0092E02C0369527950A94E2F7F4
:2031A00021703327042E01C0220F0A94EAF7822B4F5F5F4F4530510559F70895BF92CF920E
:2031C000DF92EF92FF920F931F93CF93DF938C01C0901F02D0902002E0902102F09022028D
:2031E0008091230290912402A0912502B0912602C82AD92AEA2AFB2ACFE1D0E0BC2ED70141
:20320000C6010C2E04C0B695A795979587950A94D2F780FD0EC0219788F7B12C8B2DDF912C
:20322000CF911F910F91FF90EF90DF90CF90BF900895B8018C2F0E946209019761F3EECFEC
:20324000CF93DF93EC010E94DE18BE01DF91CF910C9462091F93CF93DF93EB019091D70110
:20326000992331F0CB01DF91CF911F910C942019882379F0CB010E94DE18182F682FCE0127
:203280000E948B18BE01812FDF91CF911F910C946209CB010E94B718182FF4CF682F809100
:2032A0000001909101010C94311B682F80910001909101010C94331B80910001909101010F
:2032C0000C94351B809127028595859585950895809127028770089590912702977081E059
:2032E00009F480E0089580913302089590913302892B8093330208958095909133029823DC
:2033000090933302089510923302089590913202892B809332020895809590913202982332
:2033200090933202089510923202089590913102892B809331020895809590913102982317
:2033400090933102089510923102089580912802089508950C94A91990912802981721F026
:20336000809328020C94AA19089580912802882329F01092280280E00C94AA190895E09174
:203380000001F0910101809133028083E0910001F0910101808190913202892B8083E091ED
:2033A0000001F0910101808190913102892B808390912802992381F0E0910001F091010110
:2033C0008081892B808380910001909101010E94E91A81110E94B519809100019091010124
:2033E0000C94BE0E08950C94F21998E0899F90011124622B609327020E94EF178091270228
:203400008595859585950C94F3191092270280E00C94F31990912702809589238093270294
:20342000282F277071F4282F082E000C330B9217130639F08595859585950E9410180C94BF
:20344000051A08959093C3018093C2010895829590E09C01220F331F220F331F2C7C95955A
:203460008795959587958373282B30E0C901880F991F8A7A359527952575822B08956FEFAC
:203480007FEF90E080E00C94862C90E080E00E94622C21E08C3E9E4F09F020E0822F08959D
:2034A00082E090E00C945A2C83E090E00C945A2CCF9384E090E00E945A2CC82F81E290E0F3
:2034C0000E945A2C982F8C2FCF910895CF93C92F682F84E090E00E94682C6C2F81E290E0DC
:2034E000CF910C94682CAB01BC018FE090E00C947A2CAB01BC0183E190E00C947A2C60E0E7
:2035000070E0CB010C94791A60E070E0CB010E94731A0C947F1A6CEE7EEF90E080E00E945F
:20352000862C60E082E090E00E94682C60E083E090E00E94682C1092230210922402109217
:2035400025021092260260E084E090E00E94682C60E081E290E00E94682C60E085E090E0D2
:203560000E94682C60E086E090E00E94682C6FEF87E090E00E94682C40E050E0BA0188E0EB
:2035800090E00E947A2C60E08DE090E00E94682C40E050E0BA0188E190E00E947A2C60E0B4
:2035A00087E190E00E94682C40E050E0BA018CE190E00E947A2C60E080E290E00E94682C85
:2035C0000C94841A0C948B1A682F8EE090E00C94682C9C012E5F3F4FAC01485F5F4F80E0A5
:2035E0002417350709F40895F90191919F019923B9F38F5FF5CF662349F0FC0132960896BF
:203600002191261729F0E817F907D1F780E0089581E008959C01FC0132969FEF80E04191BE
:20362000461751F09F3F19F4411101C0982F8F5F8630A9F79F3F09F40895290F311D97FD51
:203640003A95F90162830895FC01329608962191261303C0DF0111971C92E817F907B9F729
:2036600008950C940A1B0C94241B029626E0FC0111922A95E9F70895089508950C943D1B5D
:203680000E943E1B80916A02843049F11092350288E190E020E40FB6F894A895809360000D
:2036A0000FBE2093600080E00E94D8080E943E1B83B7817F846083BF83B7816083BF789484
:2036C000889583B78E7F83BF0FB6F894A89580916000886180936000109260000FBE08957D
:2036E0000895CF930E943C1B0E94FB0B0E94701BC0E08C2F0E94570B811105C0CF5FC53024
:20370000C1F7CF91089581E0FCCF08950C94851B0E94F5130E94B20E0E94D8080C94861B1C
:203720001F921FB61F9211248F939F93AF93BF9380913502811113C0809160029091610291
:20374000A0916202B09163024196A11DB11D8093600290936102A0936202B0936302BF9141
:20376000AF919F918F911F901FBE1F90189582E084BD93E095BD9AEF97BD80936E0008956E
:203780002FB7F8948091600290916102A0916202B09163022FBF08952FB7F8946091600235
:2037A0007091610280916202909163022FBF08959C014FB7F8948091600290916102A091C8
:2037C0006202B09163024FBF821B930B089578941F921FB61F9211248F939F93AF93BF9399
:2037E0008091600290916102A0916202B09163020196A11DB11D8093600290936102A09346
:203800006202B0936302BF91AF919F918F911F901FBE1F90189587E797E7909301088093A9
:20382000000888E19AE00FB6F894A895809360000FBE90936000FFCF0C943F1A0E94FB0BDD
:203840008FE39CE90197F1F700C000000E94FB0B80E00E94570B80FF04C00E941C1C0C9468
:203860000B1C08950E94451A811102C00E94E21A0E94501A809334020E94581A909365029E
:20388000809364020E94541A682F70E090E080E00C948D1780913D0280FF12C0609107010A
:2038A00085E0689FB0011124759567957595679560387105A8F561157105A1F1862F08952F
:2038C00081FF09C06091070185E0689FB001112475956795EDCF6091070182FD0AC080913F
:2038E0003C028823D1F09091060160910701891728F085E0689FB0011124DACF869FB00174
:20390000112485E0869F9001879F300D1124692F70E0C9010E941A2CCBCF65E070E0CECF59
:203920008FE7089581E0089580913D0280FF0CC06091030170E07595679575956795611514
:20394000710549F1862F089581FF06C06091030170E075956795F3CF6091030182FD0BC0D3
:2039600090913C029923A1F06091020180910301961738F0682F70E06038710500F38FE75F
:203980000895899FC001112470E00E941A2CF4CF61E070E0D7CF81E00895803F31F40E94B6
:2039A0004A1C8195809341020895813F19F40E944A1CF8CF823F31F40E944A1C81958093E5
:2039C00040020895833F19F40E944A1CF8CF893F29F40E94941C8093420208958A3F21F461
:2039E0000E94941C8195F7CF8B3F31F40E94941C81958093430208958C3F19F40E94941C23
:203A0000F8CF843F31F480913F02816080933F020895853F21F480913F028260F7CF863F3B
:203A200021F480913F028460F1CF873F21F480913F028860EBCF883F21F480913F0280619D
:203A4000E5CF8D3F31F480913D02816080933D0208958E3F21F480913D028260F7CF8F3FF9
:203A6000B9F780913D028460F1CF90914002803F41F48091410287FD10924102992371F071
:203A80000895813F29F4809141021816ACF3F6CF823F81F497FFF2CF109240028091410201
:203AA00090914202892B90914302892B49F710923C020895833F19F4191674F3DFCF893F3B
:203AC00039F4809142021816CCF610924202D6CF8A3F29F48091420287FFD0CFF6CF8B3FFA
:203AE00039F48091430287FFC9CF10924302C6CF8C3F29F4809143021816BCF3BFCF843F3D
:203B000031F480913F028E7F80933F02B7CF853F21F480913F028D7FF7CF863F21F480915F
:203B20003F028B7FF1CF873F21F480913F02877FEBCF883F21F480913F028F7EE5CF8D3FD2
:203B400031F480913D028E7F80933D0297CF8E3F21F480913D028D7FF7CF8F3F09F08ECF03
:203B600080913D028B7FF0CF8091340283FF7EC082E792E00E949A0680913F021F928F93E3
:203B80008DE692E09F938F930E9433078BE692E00E949A0680914002282F082E000C330BC1
:203BA0003F938F9388E692E09F938F930E94330786E692E00E949A0680914102282F082E00
:203BC000000C330B3F938F9383E692E09F938F930E94330781E692E00E949A06809142022C
:203BE000282F082E000C330B3F938F938EE592E09F938F930E9433078CE592E00E949A06C0
:203C000080914302282F082E000C330B3F938F9389E592E09F938F930E94330786E592E096
:203C20000E949A0680913C021F928F9383E592E09F938F930E94330781E592E00E949A06FC
:203C400080913D021F928F938EE492E09F938F930E9433078BE492E00E949A068DB79EB771
:203C60004C960FB6F8949EBF0FBE8DBF8EE392E00E940A0F0E94C01B90933B0280933A02D1
:203C80000895CF93DF9300D000D000D0CDB7DEB786E0EEE3F2E0DE01119601900D928A954C
:203CA000E1F78091400290914102892B81F080913802909139020E94D81BAC0190913C0208
:203CC000992331F1809108018417150670F18091420290914302892B91F08091360290917B
:203CE00037020E94D81BAC0190913C02992309F478C0809104018417150608F480C0269635
:203D00000FB6F894DEBF0FBECDBFDF91CF910895209109018AE0289F9001112424173507C6
:203D2000B0F69F5F90933C0202C09F3FD1F7109242021092430280914002181624F40E940E
:203D40004A1C809340028091400287FF05C00E944A1C81958093400280914102181624F4FD
:203D60000E944A1C809341028091410287FF05C00E944A1C81958093410230914002332379
:203D8000A1F020914102222381F045EB3403C00111249923F1F09093400245EB24039001A1
:203DA00011243323D1F0309341020E94B41D80913A0290913B02909339028093380286E082
:203DC000FE013196AEE3B2E001900D928A95E1F77ECF81E080934002E0CF81E0809341026A
:203DE000E4CF209105018AE0289F900111242417350708F084CF9F5F90933C0202C09F3FA1
:203E0000D1F7109240021092410280914202181624F40E94941C809342028091420287FFF2
:203E200005C00E94941C81958093420280914302181624F40E94941C809343028091430262
:203E400087FF05C00E94941C819580934302309142023323A1F020914302222381F045EB8F
:203E60003403C00111249923F1F09093420245EB2403900111243323D1F0309343020E9433
:203E8000B41D80913A0290913B02909337028093360286E0FE013196AEE3B2E001900D9280
:203EA0008A95E1F72CCF81E080934202E0CF81E080934302E4CF86E0EEE3F2E0DF011D92A5
:203EC0008A95E9F710923C0210923D02089585E994E00E949A061F9281E08F931F9285E017
:203EE0008F9387E494E09F938F930E9433070F900F900F900F900F900F900895833009F48A
:203F000045C028F4813061F0823049F10895853009F46AC008F451C0863009F47CC0089580
:203F200080910901482F460F5527551F4F3F510594F4680F60930901809109011F928F93DC
:203F400080E893E09F938F930E9433070F900F900F900F9008958FEF80930901EDCF8091D5
:203F60000801482F460F5527551F4F3F510554F4680F60930801809108011F928F938EE67C
:203F800093E0E0CF8FEF80930801F5CF80910701482F460F5527551F4F3F510554F4680F29
:203FA00060930701809107011F928F938BE593E0C9CF8FEF80930701F5CF80910601482FB3
:203FC000460F5527551F4F3F510554F4680F60930601809106011F928F9386E493E0B2CFB6
:203FE0008FEF80930601F5CF80910301482F460F5527551F4F3F510554F4680F60930301FA
:20400000809103011F928F938DE293E09BCF8FEF80930301F5CF80910201482F460F5527B7
:20402000551F4F3F510554F4680F60930201809102011F928F9382E193E084CF8FEF8093D2
:204040000201F5CF8330C9F128F4813061F0823019F10895853009F452C008F43FC0863040
:2040600009F45EC0089580910901681790F4861B80930901809109011F928F9383E093E0E8
:204080009F938F930E9433070F900F900F900F90089510920901EECF80910801681750F491
:2040A000861B80930801809108011F928F9381EF92E0E6CF10920801F6CF809107016817B7
:2040C00050F4861B80930701809107011F928F938EED92E0D5CF10920701F6CF80910601DC
:2040E000681750F4861B80930601809106011F928F9389EC92E0C4CF10920601F6CF80915E
:204100000301681750F4861B80930301809103011F928F9380EB92E0B3CF10920301F6CF6E
:2041200080910201681750F4861B80930201809102011F928F9385E992E0A2CF1092020114
:20414000F6CFCF93C82F1F928F938AE995E09F938F930E94330761E070E080E090E004C031
:20416000660F771F881F991FCA95D2F70E948D170F900F900F900F90CF910C94F513CF9381
:20418000DF938B3109F4FEC108F0A0C18B3009F4BCC108F06AC1863009F4CAC148F4853055
:2041A00009F4A2C18AE39AE00E949A0680E0D0C1873009F4D0C18830A9F789ED9AE00E9456
:2041C0009A068AE29AE00E949A060E94541A1F928F9387E29AE09F938F930E94330785E2BA
:2041E0009AE00E949A060E94501AC82F82E19AE00E949A061F92CF938DE09AE09F938F9393
:204200000E9433078BE09AE00E949A0681E09AE00E949A068C2F81701F928F938EEF99E009
:204220009F938F930E9433078CEF99E00E949A0682EF99E00E949A06C1FB882780F91F9257
:204240008F938FEE99E09F938F930E9433078DEE99E00E949A0681EE99E00E949A06C2FBF9
:20426000882780F91F928F938EED99E09F938F930E9433078CED99E00E949A0683ED99E002
:204280000E949A06C3FBCC27C0F91F92CF9380ED99E09F938F930E9433078EEC99E00E94B4
:2042A0009A060E94581AEC018AEB99E00E949A06DF93CF9385EB99E09F938F930E94330740
:2042C00083EB99E00E949A068AE999E00E949A068C2F81701F928F9387E999E09F938F93CB
:2042E0000E9433078DB79EB780960FB6F8949EBF0FBE8DBF85E999E00E949A068EE799E055
:204300000E949A06C1FB882780F91F928F938BE799E09F938F930E94330789E799E00E94FE
:204320009A0687E699E00E949A068D2F81701F928F9384E699E09F938F930E94330782E6BA
:2043400099E00E949A0680E599E00E949A06D695D1701F92DF938DE499E09F938F930E94D3
:2043600033078BE499E00E949A0689E399E00E949A06C2FB882780F91F928F9386E399E018
:204380009F938F930E94330784E399E00E949A0682E299E00E949A06C3FB882780F91F9215
:2043A0008F938FE199E09F938F930E9433078DE199E00E949A0683E199E00E949A06C4FBBB
:2043C000882780F91F928F9380E199E09F938F930E9433078EE099E00E949A068CEF98E0BC
:2043E0000E949A06C5FB882780F91F928F9389EF98E09F938F930E94330787EF98E00E9410
:204400009A068BED98E00E949A06C6FB882780F91F928F9388ED98E09F938F930E943307F1
:204420008DB79EB780960FB6F8949EBF0FBE8DBF86ED98E00E949A068EEC98E00E949A06A5
:20444000C7FBCC27C0F91F92CF938BEC98E09F938F930E94330789EC98E00E949A060F90EE
:204460000F900F900F9081E073C0803109F4A2C080F48E3009F096CE90913402892F8B7F13
:2044800092FF84608093340282FF91C085E69AE085C0863109F49EC0893109F083CE80EFDD
:2044A00096E00E949A0682ED96E00E949A068CE996E00E949A0689E696E00E949A0683E363
:2044C00096E00E949A0688E096E021C08A3249F190F4873211F128F48E3108F463CE8D514A
:2044E0001DC0893209F05ECE88EA9AE00E949A060E94E108B8CF833468F48A3308F0A1C096
:20450000853359F0883309F04DCE86E297E00E949A06A9CF833409F045CE80E00E94A120AC
:20452000A2CF88EC9AE00E949A060E94E21A9BCF80913402807F809334028FEF96E00E94AD
:204540009A0684EC9AE00E949A0681E080934502DF91CF91089590913402892F8E7F90FFBC
:2045600081608093340280FF03C08CE99AE0CFCF8FE89AE00E949A0680913402817F8093B5
:20458000340271CF90913402892F8D7F91FF82608093340281FF08C082E89AE00E949A0661
:2045A000809134028160EBCF84E79AE0B0CF85E59AE0ADCF90913402892F877F93FF8860C6
:2045C0008093340283FF03C089E49AE0E7CF8CE39AE09DCF8AEF95E00E949A060E94B20EC9
:2045E0001F928F9380EE95E09F938F930E943307809114011F928F9389EC95E09F938F939E
:204600000E943307809152021F928F9386EB95E09F938F930E9433070E94CC1B9F938F9393
:204620007F936F938FE995E09F938F930E9433078DB79EB742960FB6F8949EBF0FBE8DBF11
:2046400012CF89536BCF80E008950C9423238E518A3030F4E82FF0E0E755FE4F80810895B5
:2046600080E00895CF93C82F809145028130C1F0882339F0823009F447C01092450280E057
:204680000DC00E9473198232D1F78C2F0E94232381111BC08C2F0E94BF208170CF91089569
:2046A0000E947319823289F38C2F0E94252381111BC0C431D9F060F4CB3071F0C031D1F06A
:2046C00080E995E00E949A0613C081E090E0E5CFC93261F0C833A1F78FEF96E00E949A064D
:2046E00086E995E00E949A0681E0D7CF1092450280E0D3CF0E94671F82E995E00E949A0658
:2047000082E080934502F0CFC432C8F4CE3108F0BEC0CB30E1F040F4C73009F4CCC084E310
:2047200094E00E949A0626C0C331C1F1C431B9F780914402882351F1109244020AC0CB349D
:2047400009F4B7C0C8F4C93299F3C83341F70E94671F80914402882309F4C4C01F928F93F1
:204760008EE294E09F938F930E9433070F900F900F900F9081E092CFC13509F494C0C235A9
:2047800009F48BC0CE3459F66AE08EC083E494E00E949A0681E08093450280CF8DE194E0DF
:2047A0000E949A068BE094E00E949A06809109011F928F9388E094E09F938F930E9433079C
:2047C00086E094E00E949A0684EF93E00E949A06809108011F928F9381EF93E09F938F9371
:2047E0000E9433078FEE93E00E949A0680EE93E00E949A06809107011F928F938DED93E0AF
:204800009F938F930E9433078BED93E00E949A068AEC93E00E949A06809106011F928F9325
:2048200087EC93E09F938F930E94330785EC93E00E949A0680EB93E00E949A068091030107
:204840001F928F938DEA93E09F938F930E9433078BEA93E00E949A0684E993E00E949A061F
:20486000809102011F928F9381E993E09F938F930E9433078FE893E00E949A068DB79EB77F
:2048800048960FB6F8949EBF0FBE8DBF62CF8C2F0E942723809344025CCF61E0809144027F
:2048A0000E947E1F56CF61E0809144020E94222050CF6AE0F3CF8EE18093090182E38093E9
:2048C00008018AE08093070184E18093060188E08093030188E28093020186E394E00E944D
:2048E0009A0637CF8BE294E01CCF8091510208959FB7F894109248029FBF90916A029430C8
:2049000009F048C02091E9002F703091EC00932F917030FD90E8922B23E02093E90020913B
:20492000EB0020FF34C02091EE0027FF30C020914602222321F02091E80025FF28C010922E
:20494000460226E03091E80035FF14C08093F1008091E80085FD27C08091E80080FFFCCFAF
:204960008091E8008E778093E8009F709093E90080E0089530916A02343049F43091EB00AC
:2049800035FD05C0215041F481E0809346029F709093E9008FEF0895EFE9FFE03197F1F721
:2049A00000C00000CFCF8FB7F89421E0209348028FBFDBCFCF93DF9300D00F92CDB7DEB773
:2049C00090916A02943019F589837B836A8382E08093E9008FEF9091E800815095FD06C073
:2049E00095ED9A95F1F700008111F5CF8091E80085FF0DC050E040E063E070E0CE01019635
:204A00000E947E278091E8008E778093E8000F900F900F90DF91CF910895CF93DF93EC014B
:204A20000E946127823011F0843031F4BE0184E0DF91CF910C94DA24DF91CF910895BC0105
:204A400083E00C94DA24CF93DF93EC010E946127823011F08430F9F482E08093E9008FEF3A
:204A60009091E800815095FD06C095ED9A95F1F700008111F5CF8091E80085FF0CC050E09C
:204A800040E066E070E0CE010E947E278091E8008E778093E800DF91CF910895CF93DF9310
:204AA000EC010E946127823011F0843039F581E08093E9008FEF9091E800815095FD06C03D
:204AC00095ED9A95F1F700008111F5CF8091E80085FF14C050E040E068E070E0CE010E943D
:204AE0007E278091E8008E778093E80088E0FE01A9E4B2E001900D928A95E1F7DF91CF919B
:204B0000089589E09BE00E949A0680916902811109C00E940E290E946B298091E200846015
:204B20008093E200089585E09BE00E949A0610926902089581E09BE00C949A068DEF9AE005
:204B40000C949A0689EF9AE00E949A060C94881B209147022F5F822F62E30E940E2C992388
:204B600019F020934702089510924702809148028823F1F080916A028430C1F49091E900D1
:204B80009F702091EC00822F817020FD80E8892B93E09093E9009091EB0090FF04C090918F
:204BA000EE0097FD08C08F708093E9001092480208951092F1009091E80095FDFACF90910F
:204BC000E80090FFF0CF9091E8009E779093E800EACF42E061EC81E00E948A2842E261EC28
:204BE00082E00E948A2842E261EC83E00C948A2880916C02833009F45FC030F48130C1F104
:204C0000823009F49BC008958A3009F487C08B3009F46DC0893009F04EC080916B02813219
:204C200009F049C080916F0290917002029708F042C08091E800877F8093E8008091E800D7
:204C400082FF35C09091F3008091F200029729F48091F1008B7F813021F48091F10080932A
:204C600051028091E8008B778093E8000C94BE2880916B02813AF9F48091E800877F80932D
:204C8000E80080916F0290917002892B61F468E089E492E070E00E94CD278091E8008B7706
:204CA0008093E800089560E090E080E0F3CF80916A028111C3CF089580916B02813AD9F743
:204CC00080916F0290917002892BA9F78091E800877F8093E8008091E80080FFFCCF80911D
:204CE00014018093F1008091E8008E77BDCF80916B02813201F780916F0290917002892B1F
:204D0000D1F68091E800877F8093E8000E94BE2880916D02809314010C94F51380916B027C
:204D2000813249F68091E800877F8093E8000E94BE2880916E0280935202089580916B02FC
:204D4000813A09F0B8CF8091E800877F8093E8008091E80080FFFCCF80915202C2CF84B7AA
:204D6000877F84BF0FB6F894A89580916000886180936000109260000FBE80E890E00FB623
:204D8000F89480936100909361000FBE0E94520F0E940E290E946B298091E20084608093C6
:204DA000E20088E794E20E94221A78940E94F32B0E945C0F8AE091E00E94AD0E88EE9AE04D
:204DC0000E949A0680916A02853019F00E948C0FF9CF84EE9AE00E949A060E94401B809115
:204DE0006802882379F30E94711B882359F30E946827E8CF0C94FC26292F33272330310528
:204E000021F168F42130310509F449C02230310509F44AC090E080E030E020E029C02132EC
:204E2000310581F122323105A9F76330710590F7FB01EE0FFF1FEA54FE4F208131816D545A
:204E40007E4FFB01808190E013C099278130910599F0009741F08230910589F00397D1F6CB
:204E6000EDE0FBE002C0E5E3FBE0849190E09F01FA01318320830895E3E2FBE0F6CFE3E1E8
:204E8000FBE0F3CF6330710528F6660F771FFB01E454FE4F2081318189E090E0E9CF82E17B
:204EA00090E024E93BE0E4CF8BE590E029E33BE0DFCF80916A02843011F482E0089581E05C
:204EC000089580915302811102C00C945927089580E189BD82E189BD09B400FEFDCF8091D6
:204EE000D8008F7D8093D8008091E00082608093E0008091E00081FDFCCF0895AF92BF92B4
:204F0000CF92DF92FF920F931F93CF93DF936C01EB018A010E94DD28F82E811123C00115CA
:204F2000110539F0F80180819181C81BD90BC80ED91EB12CA12C2097A9F08091E80085FD1D
:204F400022C08091E8008E778093E80001151105A1F0F80180819181A80EB91EB182A082CB
:204F600085E0F82E8F2DDF91CF911F910F91FF90DF90CF90BF90AF9008950E94DD288823F0
:204F8000D1F2F82EEFCFF60181916F018093F1002197FFEFAF1ABF0ACECFFC018091710297
:204FA0009091720286179707A0F06115710529F49091E8009E779093E80090E06115710503
:204FC00051F4911108C08091E80082FF34C080E00895BC01F2CF80916A028823C1F18530AA
:204FE000C1F18091E80083FD30C08091E80082FDEACF8091E80080FFE1CF8091F300209188
:20500000F200382F6115710519F02830310558F091E02830310509F090E02091E8002E77C6
:205020002093E800CBCF81918093F100615071092F5F3F4FE7CF80916A02882341F085301A
:2050400041F08091E80083FFBECF81E0089582E0089583E00895FC01809171029091720204
:2050600086179707A0F06115710529F48091E8008E778093E80090E06115710551F4911120
:2050800008C08091E80082FF35C080E00895BC01F2CF80916A028823C9F18530C9F18091FC
:2050A000E80083FD31C08091E80082FDEACF8091E80080FFE1CF8091F3002091F200382F30
:2050C0006115710519F02830310558F091E02830310509F090E08091E8008E778093E800A4
:2050E000CBCF84918093F1003196615071092F5F3F4FE6CF80916A02882341F0853041F0FB
:205100008091E80083FFBDCF81E0089582E0089583E00895982F973028F08F708093E900EA
:2051200081E008959093E900242F762F50E0981731F07091EC002091ED005091F00021FDF3
:2051400002C09F5FE8CF3091EB003E7F3093EB003091ED003D7F3093ED003091EB0031606A
:205160003093EB007093EC002093ED005093F0002091EE0027FDE5CF80E0089580916B022D
:2051800087FF13C08091E80082FF06C08091E8008B778093E80004C080916A028111F2CFEC
:2051A000089580916A028823D9F38091E80080FFF8CF8091E8008E77ECCF2091E400309110
:2051C000E50095E6A9012091EC00822F817020FF06C08091E80080FF06C080E008952091B5
:2051E000E80022FD1AC080916A02882389F0853089F08091EB0085FD0FC02091E40030915C
:20520000E50042175307F9F29150E1F684E0089582E0089583E0089581E008950E947C290E
:205220000E948429E0EEF0E0808181608083E8EDF0E080818F77808319BCA7EDB0E08C91D7
:205240008E7F8C9380818F7E80831092690208950F931F93CF93DF930E947C290E948429A9
:20526000C8EDD0E088818F77888388818068888388818F7D888319BC10926A0210926602A6
:20528000109268021092670200EE10E0F80180818B7F808388818160888342E060E080E05B
:2052A0000E948A28E1EEF0E080818E7F8083E2EEF0E0808181608083808188608083F80180
:2052C00080818E7F8083888180618883DF91CF911F910F910895E8EDF0E080818F7E808355
:2052E000E7EDF0E080818160808384E082BF81E0809369020C942829E8EDF0E080818E7FFD
:2053000080831092E20008951092DA001092E10008951F920F920FB60F9211242F933F934C
:205320004F935F936F937F938F939F93AF93BF93EF93FF938091E10082FF0BC08091E20058
:2053400082FF07C08091E1008B7F8093E1000E94A8258091DA0080FF19C08091D80080FFFB
:2053600015C08091DA008E7F8093DA008091D90080FF96C080E189BD82E189BD09B400FEA9
:20538000FDCF81E080936A020E9481258091E10080FF19C08091E20080FF15C08091E20095
:2053A0008E7F8093E2008091E20080618093E2008091D80080628093D80019BC85E080931F
:2053C0006A020E949E258091E10084FF2BC08091E20084FF27C080E189BD82E189BD89B5B1
:2053E000982F917080FFFBCF8091D8008F7D8093D8008091E1008F7E8093E1008091E200D6
:205400008F7E8093E2008091E20081608093E20080916602882309F449C084E080936A02B4
:205420000E94A2258091E10083FF29C08091E20083FF25C08091E100877F8093E10082E0FE
:2054400080936A02109266028091E1008E7F8093E1008091E2008E7F8093E2008091E200E8
:2054600080618093E20042E060E080E00E948A288091F00088608093F0000E949A25FF9163
:20548000EF91BF91AF919F918F917F916F915F914F913F912F910F900FBE0F901F901895D5
:2054A00019BC10926A020E94932570CF8091E30087FD93E090936A02B3CF1F920F920FB65D
:2054C0000F9211242F933F934F935F936F937F938F939F93AF93BF93CF93DF93EF93FF93AA
:2054E000D091E900DF708091EC00C82FC17080FDC0E81092E9008091F000877F8093F00034
:2055000078940E94A12A1092E9008091F00088608093F000CD2BCF70C093E900FF91EF9118
:20552000DF91CF91BF91AF919F918F917F916F915F914F913F912F910F900FBE0F901F9091
:2055400018951F93CF93DF93CDB7DEB7AA970FB6F894DEBF0FBECDBF8BE692E02091F100F2
:20556000FC012193CF01F2E083379F07B9F70E94F8258091E80083FF1EC180916B02909110
:205580006C029A3008F017C1E92FF0E0E454F34D0C942E2C803899F0823809F00CC18091D7
:2055A0006F028F70873008F006C18093E9008091EB0085FB882780F91092E90006C0809103
:2055C000670290916802911182609091E800977F9093E8008093F1001092F1008091E80099
:2055E0008E77E5C0882309F4D3C0823009F0E3C080916D028111D6C080916F028F702FEF31
:20560000280F263008F0D7C08093E9002091EB0020FFC8C0933031F48091EB008062809356
:20562000EB00C0C09091EB0090619093EB0021E030E001C0220F8A95EAF72093EA001092B2
:20564000EA008091EB008860EACF8111B4C010916D021F778091E3008078812B8093E30089
:205660008091E800877F8093E8000E94BE288091E80080FFFCCF8091E30080688093E30093
:2056800082E0111183E080936A0295C08058823008F091C080916D0290916E028C3D23E09F
:2056A0009207A1F583E08A838AE289834FB7F894DE01139620E03EE051E2E32FF0E05093A3
:2056C0005700E49120FF03C0E295EF703F5FEF708E2F90E0EA30C0F0C7968D939D932F5F17
:2056E000243159F74FBF8091E800877F8093E8006AE270E0CE0101960E94CD278091E8006C
:205700008B778093E80057C0C096E7CF60916F0270917002AE014F5F5F4F0E94FA26BC010A
:20572000892B09F448C09091E800977F9093E80089819A810E942B28E1CF8038E1F580911D
:20574000E800877F8093E800809166028093F10045CF811130C090916D02923060F5809195
:20576000E800877F8093E800909366020E94BE2880916602882311F084E005C08091E300EB
:2057800087FDFACF81E080936A020E94E92513C080916D02813079F481E0933009F080E03E
:2057A000809368021092E9008091E800877F8093E8000E94BE288091E80083FF0AC0809109
:2057C000E800877F8093E8008091EB0080628093EB00AA960FB6F894DEBF0FBECDBFDF910D
:2057E000CF911F910895CF9380916A028823A1F0C091E900CF709091EC00892F817090FD25
:2058000080E8C82B1092E9008091E80083FD0E94A12ACF70C093E900CF910895991B79E037
:2058200004C0991F961708F0961B881F7A95C9F78095089597FB072E16F4009407D077FDBE
:2058400009D00E94342C07FC05D03EF4909581959F4F0895709561957F4F0895EE0FFF1F1C
:205860000590F491E02D0994AA1BBB1B51E107C0AA1FBB1FA617B70710F0A61BB70B881F88
:20588000991F5A95A9F780959095BC01CD010895FB01DC010D900020E9F7119701900D9211
:2058A0000020E1F70895FB01DC0101900D920020E1F70895F999FECF92BD81BDF89A992777
:2058C00080B50895A8E1B0E042E050E00C948E2C262FF999FECF92BD81BDF89A019700B412
:2058E000021639F01FBA20BD0FB6F894FA9AF99A0FBE08950396272F0E94692C0E94682C73
:20590000252F0E94692C242F0C94692C0196272F0E94692C0C94682CDC01CB01FC01F999E4
:20592000FECF06C0F2BDE1BDF89A319600B40D9241505040B8F70895F894FFCF93119311CC
:20594000EB11EB113D125912C011C0119B122713361336139213C011C0119B130414041455
:205960000D140D140F140D140D140D140414041414140D140D141414CA2AF22ADB2BF22A6B
:20598000DB2B252B462BDB2B9D2BA92B29022808641E140A321E75244E2523251F250D2589
:2059A00001666C61677B00643474345F00337866316C5F00723376337273335F00336E6758
:2059C000316E333372316E677D00E200E900EA00B500B600B700CD008301CC008A019201BB
:2059E00094012102230224022502260227022A02B300B4006F007000818283F6F73133667D
:205A000097C63435E200E900EA00B500B600B700CD008301CC008A019201940121022302D1
:205A200024022502260227022A02B300B4006F007000818283010203040506070809004063
:205A40008122490CC80BA60B4B0B640B7D0BFFFFFFFFFFFFFFFFFFFFFFFFFFFFFFFFFFFF8F
:205A6000FFFFFFFFFFFFFFFFFFFFFFFFFFFFFFFFFFFFFFFFFFFFFFFFFFFFFFFFFFFFFFFF46
:205A8000FFFFFFFFFFFFFFFFFFFFFFFFFFFFFFFFFFFFFFFFFFFFFFFFFFFFFFFFFFFFFFFF26
:205AA000FFFFFFFFFFFFFFFFFFFFFFFFFFFFFFFFFFFFFFFFFFFFFFFFFFFFFFFFFFFFFFFF06
:205AC000FFFFFFFFFFFFFFFFFFFFFFFFFFFFFFFFFFFFFFFFFFFFFFFFFFFFFFFFFFFFFFFFE6
:2070000055C000006EC000006CC000006AC0000068C0000066C0000064C0000062C0000043
:2070200060C000005EC00000F2C400005AC0000058C0000056C0000054C0000052C00000EE
:2070400050C0000078C000004CC000004AC0000048C0000046C0000044C0000042C00000BE
:2070600040C000003EC000003CC000003AC0000038C0000036C0000034C0000032C0000048
:2070800030C000002EC000002CC000002AC0000028C0000026C0000024C0000022C00000A8
:2070A00020C000001EC000001CC0000011241FBECFEFDAE0DEBFCDBF11E0A0E0B1E0E2E3BC
:2070C000FFE702C005900D92A83AB107D9F711E0A8EAB1E001C01D92AE3BB107E1F78FD30B
:2070E00026C78ECFF89410926F0010928100109285001092840081E085BF15BE47985D98ED
:2071000028980C94000008952091B2013091B3012F5F3F4F3093B3012093B201932F37FFA8
:2071200003C08EEF831B982F990F921710F447980895479A08951F920F920FB60F9211246E
:207140002F938F939F93EF93FF9310928500109284008091A8019091A901009741F00197D3
:207160009093A9018093A801892B09F45D988091AA019091AB01009741F001979093AB0128
:207180008093AA01892B09F42898E0E0F0E0859194918F5F9F4F49F08091AC019091AD0153
:2071A00001969093AD018093AC01FF91EF919F918F912F910F900FBE0F901F90189584E0BC
:2071C0008093E9000DC08091E8008B778093E80003C08EB3882351F08091E80082FFF9CFBE
:2071E0008091E80085FFEFCF8091F1000895982F83E08093E9008091E80085FD0DC0809136
:20720000E8008E778093E80003C08EB3882369F08091E80080FFF9CF9093F1005D9A84E6C9
:2072200090E09093A9018093A80108954F925F926F927F928F929F92AF92BF92CF92DF921E
:20724000EF92FF920F931F93CF93DF9384E08093E9008091E80082FF57C2289A84E690E065
:207260009093AB018093AA01AADF182F853481F48CE49DE19093AD018093AC0107B600FC4B
:20728000FDCFF999FECF81E180935700E89503C0843519F494DF8DE00DC28C34E1F38035F9
:2072A000D1F3843721F484E4A2DF80E003C2813611F489E5FFC18134B1F481DF182F7FDFE3
:2072C00090E0880F991FAA2797FDA095BA2F312F330F20E0442737FD4095542F822B932B68
:2072E000A42BB52BB8C1803711F483E5E3C1833549F4C0E0D1E089917ADF21E0C730D20714
:20730000D1F7D9C1863521F481E371DF80E3D2C1833731F487E86BDF85E969DF8EE1CAC149
:207320008536B9F4E0E0F0E093E085E090935700E89507B600FCFDCF80935700E89507B65D
:2073400000FCFDCFE058FF4FA0E7E030FA0771F7A2CF823739F4E1E0F0E089E08093570024
:207360008491A8C1863439F4E0E0F0E089E08093570084919FC18E3439F4E3E0F0E089E0E5
:2073800080935700849196C1813539F4E2E0F0E089E08093570084918DC1823631F489E521
:2073A00026DF80E024DF80E885C1823419F0873609F0E5C01092AD011092AC0100DF082FE8
:2073C000FEDEF82EFCDE682E8554823008F071C1902F80E0CF2DD0E0C82BD92B10926F00B3
:2073E000173609F04BC081E180935700E895DD24CC24C3943FC0E090AE01F090AF010091CC
:20740000B0011091B101B6E46B16D9F4ED2DF0E0EE29FF29E4918E2FEADEDD2081F082E08D
:2074200090E0A0E0B0E0E80EF91E0A1F1B1FE092AE01F092AF010093B0011093B101DC2470
:2074400018C0D801C701B695A7959795879559D5CEDE82E090E0A0E0B0E0E80EF91E0A1FF2
:207460001B1FE092AE01F092AF010093B0011093B1012197209709F0BECF7DC08090AE01F5
:207480009090AF01A090B001B090B10196E4691609F05DC083E0F40180935700E89507B63E
:2074A00000FCFDCF54C0F6E46F1661F5772031F1E090AE01F090AF010091B0011091B1019E
:2074C0007EDED82ECC24852D90E08C299D29F7010C0140925700E895112482E090E0A0E08B
:2074E000B0E0E80EF91E0A1F1B1FE092AE01F092AF010093B0011093B10102C060DE582E1A
:20750000742423C0E090AE01F090AF010091B0011091B10116950795F794E79450DE682FFA
:20752000C701F7D48091AE019091AF01A091B001B091B1010296A11DB11D8093AE01909349
:20754000AF01A093B001B093B101219704C05524772444244394209709F0A5CF96E46916B6
:2075600041F485E0F40180935700E89507B600FCFDCF8DE03CDE82E080936F009CC0833492
:2075800071F40091AE011091AF0119DE90E021E0F8010C0120935700E89511247CCE8336C8
:2075A00019F5E090AE01F090AF010091B0011091B10105DEF701E16090E021E00C0120938C
:2075C0005700E895112482E090E0A0E0B0E0E80EF91E0A1F1B1FE092AE01F092AF0100936A
:2075E000B0011093B10157CE8D3661F4E091AE01F091AF0185E080935700E89507B600FCF2
:20760000FDCF49CE823551F4E091AE01F091AF0105911491812FEBDD802F4CC0843421F5FE
:20762000E090AE01F090AF010091B0011091B10116950795F794E794C2DD682FC70169D4DE
:207640008091AE019091AF01A091B001B091B1010296A11DB11D8093AE019093AF01A093D8
:20766000B001B093B10117CE843609F5E090AE01F090AF010091B0011091B101D801C70142
:20768000B695A795979587953CD4B1DD82E090E0A0E0B0E0E80EF91E0A1F1B1FE092AE010A
:2076A000F092AF010093B0011093B10104C08B3111F08FE39CDD83E08093E9009091E8002B
:2076C0008091E8008E778093E80095FF04C010C08EB38823C9F08091E80080FFF9CF809193
:2076E000E8008E778093E80003C08EB3882361F08091E80080FFF9CF84E08093E9008091F1
:20770000E8008B778093E800DF91CF911F910F91FF90EF90DF90CF90BF90AF909F908F90AC
:207720007F906F905F904F9008959091B601892F8F77813249F58091B7018032A1F081328A
:2077400019F5913A09F58091E800877F8093E8008DE091E067E070E00BD28091E8008B770B
:207760008093E8000895913279F48091E800877F8093E8008DE091E067E070E05DD2809192
:20778000E8008E778093E800089582E061EC42E0B5D083E061E842E1B1D084E060E842E1EF
:2077A000ADC084B7877F84BF88E10FB6F89480936000109260000FBE20E880E090E00FB63F
:2077C000F89420936100809361000FBE81E085BF92E095BF3F9A209A559AE1E6F0E02083A1
:2077E000108247985D982898109289008AEF8093880090936F0083E080938100F0C040911A
:20780000000850910108109201081092000894B714BE88E10FB6F8948093600010926000D5
:207820000FBE292F30E0F901E270F07091FD18C090FF05C0859194918F5F9F4F81F423FFFF
:207840000FC08091090190910A014817590741F0E0E0F0E0859194918F5F9F4F09F042DC64
:20786000A0DF78941092AD011092AC010CC0DEDC36D38091AC019091AD0181549F4110F00D
:207880001092140141DC80911401882381F78091E00081608093E00025DC80E090E0089598
:2078A000FA01923049F0933061F09130F9F485E191E022E130E01EC087E291E02EE330E04D
:2078C00019C0882329F485E691E024E030E012C0813029F489E691E022E230E00BC0823006
:2078E00029F48DE891E028E130E004C080E090E020E030E091838083C90108958093E9004E
:207900008091EB0081608093EB001092ED006093EC004093ED008091EE00881F8827881F62
:2079200008958091B60188238CF403C08EB38823B1F08091E80082FFF9CF8091E8008B772A
:207940008093E80008958EB3882349F08091E80080FFF9CF8091E8008E778093E800089594
:20796000EF92FF920F931F9345D04CD008ED10E0F80180818F77808380818068808380819B
:207980008F7D808319BC1EBA1092B40180EEE82EF12CF70180818B7F8083F8018081816052
:2079A000808380E060E042E0A9DFE1EEF0E080818E7F8083E2EEF0E0808181608083808144
:2079C00088608083F70180818E7F8083F8018081806180831F910F91FF90EF900895E7ED06
:2079E000F0E08081816080838AE482BF81E08093B501B6CFE8EDF0E080818E7F808310921C
:207A0000E20008951092DA001092E10008951F920F920FB60F9211242F933F934F935F93F6
:207A20006F937F938F939F93AF93BF93EF93FF938091DA0080FF1BC08091D80080FF17C0B2
:207A40008091DA008E7F8093DA008091D90080FF0BC080E189BD82E189BD09B400FEFDCF36
:207A600081E08EBB3BD203C019BC1EBA37D28091E10080FF17C08091E20080FF13C0809138
:207A8000E2008E7F8093E2008091E20080618093E2008091D80080628093D80019BC85E049
:207AA0008EBB1CD28091E10084FF2CC08091E20084FF28C080E189BD82E189BD09B400FEC5
:207AC000FDCF8091D8008F7D8093D8008091E1008F7E8093E1008091E2008F7E8093E20012
:207AE0008091E20081608093E2008091B401882331F48091E30087FD02C081E001C084E067
:207B00008EBBECD18091E10083FF21C08091E20083FF1DC08091E100877F8093E10082E06A
:207B20008EBB1092B4018091E1008E7F8093E1008091E2008E7F8093E2008091E2008061E9
:207B40008093E20080E060E042E0D8DEC7D1FF91EF91BF91AF919F918F917F916F915F9130
:207B60004F913F912F910F900FBE0F901F9018959C014091BC015091BD014617570718F49D
:207B8000F90190E044C06115710511F0AB01F8CF8091E8008E778093E80040E050E0F0CF0F
:207BA0008EB3882309F444C0853009F443C08091E80083FF02C081E008958091E80082FD70
:207BC00031C08091E80080FF22C08091F3009091F200782F60E0292F30E0262B372B07C07A
:207BE00081918093F100415050402F5F3F4F4115510519F02830310598F390E02830310566
:207C000009F491E08091E8008E778093E8004115510531F6992321F605C08EB3882341F075
:207C2000853041F08091E80082FFF7CF80E0089582E0089583E008959C016115710529F47C
:207C40008091E8008B778093E800F90126C08EB3882391F1853091F18091E80083FF02C06C
:207C600081E008958091E80082FFF1CF06C08091F10081936150704059F02091F300809191
:207C8000F200322F20E090E0822B932B892B79F78091E8008B778093E80061157105B9F601
:207CA00005C08EB3882341F0853041F08091E80080FFF7CF80E0089582E0089583E00895C2
:207CC0000F931F93DF93CF9300D0CDB7DEB7E6EBF1E08091F100819381E0EE3BF807C9F792
:207CE00024DD8091E80083FFE4C08091B6019091B701953009F46DC0963040F4913081F1A7
:207D0000913070F0933009F0D4C02AC0983009F4A3C0993009F4B2C0963009F0CAC07CC023
:207D2000803809F4C6C0823809F0C3C08091BA0187708093E9008091EB001092E9002091DB
:207D4000E800277F2093E80090E025E0969587952A95E1F781708093F1001092F10087C0D8
:207D6000882319F0823009F0A4C08F71823009F0A0C08091B801882331F52091BA01277097
:207D800009F497C02093E9008091EB0080FF1BC0933021F48091EB00806213C08091EB0018
:207DA00080618093EB0081E090E002C0880F991F2A95E2F78093EA001092EA008091EB00E5
:207DC00088608093EB001092E9008091E800877F51C0882309F06DC01091B8011F770FB79B
:207DE000F8948091E800877F8093E8009ADD8091E80080FFFCCF8091E3008078812B809398
:207E0000E30080688093E300112311F482E001C083E08EBB0FBF4DC08058823008F049C033
:207E20008091B8019091B9016091BA01AE014F5F5F4F36DDBC01009709F43BC08091E8008E
:207E4000877F8093E80089819A8192DE8091E8008B778093E8002DC0803859F58091E800AA
